:100800008DEF3FF000436F6C6C656765004B4254A1
:020810000000E6
:107EC6000D080508E8CF07F0898007C08AFF898278
:107ED600000E026E0A0E016EA4EC3FF08992000EAF
:107EE600026E0A0E016EA4EC3FF01200E8CF07F016
:107EF600899007C08AFF8982000E026E0A0E016E03
:107F0600A4EC3FF08992000E026E0A0E016EA4ECFC
:107F16003FF01200C60EF66E7E0EF76E000EF86E7D
:107F260000EE08F010EE04F00900F5CFEEFFE55084
:107F3600E150FAE1000EF86E080EF76E0001BFEF91
:107F46003FF0000E046E000E036E0FD0000E066E9C
:107F5600000E056E640E055C000E0658D8B003D000
:107F6600054A062AF7D7034A042A0150035C025041
:107F76000458D8B01200EAD70F0EC16E000E936EE9
:107F860092909292380E79EC3FF0060E79EC3FF023
:107F96000C0E79EC3FF0010E79EC3FF0800E79EC97
:107FA6003FF00AD008C0F6FF09C0F7FF0800F550F9
:107FB60065EC3FF0084A092A08C0F6FF09C0F7FF3A
:107FC6000800F5500009D8A4EDD7C00E79EC3FF0B3
:107FD6000AD00AC0F6FF0BC0F7FF0800F55065ECA3
:107FE6003FF00A4A0B2A0AC0F6FF0BC0F7FF08004B
:0A7FF600F5500009D8A4EDD7FFD71D
:020000040020DA
:08000000FFFFFFFFFFFFFFFF00
:020000040030CA
:0E00000000051F1FFF8385FF0FC00FE00F409C
:00000001FF
